:100000000C94DB060C940C070C940C070C940C0756
:100010000C940C070C940C070C940C070C940C0714
:100020000C940C070C940C070C940C070C940C0704
:100030000C940C070C940C070C940C070C940C07F4
:100040000C940C070C940C070C940C070C940C07E4
:100050000C940C070C940C070C940C070C949F1E2A
:100060000C940C070C943F1D0C94671C0C940C070B
:100070000C940C070C940C070C940C070C940C07B4
:100080000C940C070C940C070C940C070C940C07A4
:100090000C940C1D0C94281C0C940C070C940C074D
:1000A0000C940C070C940C070C940C070C940C0784
:1000B0000C940C070C940C070C940C070C940C0774
:1000C0000C940C070C940C070C940C070C94D91C82
:1000D0000C94E91B0C940C070C94A61C0C94AA1B02
:1000E0000C940C070C94C9190C94A42B0C940E07B7
:1000F0000C945D1B0C944F180C94B6290C94380981
:100100000C94CA190C94AA1A0C945B070C94F70768
:100110000C94171B0C9498070C946E070C94C8163B
:100120000C94F71A0C94F9190C94580C0C948D0F2C
:100130000C94EC1A0C94331B0C94E6190C94DA19F9
:100140000C94F21911007F96290001007F96280077
:100150003A0155C0021010C10141C504002280407F
:10016000360168B00100B102B011B40102B6030259
:10017000023BB701C63A0155F704A9512C82C002CF
:100180000D0DC1024300C20100C50400480048B47F
:100190000100B60302023BE00F0F211C0B0E0849C1
:1001A0009838091103141000E10F0F2F2B0C0E06C5
:1001B000477637071104231E00B00100B304020084
:1001C0000000B40100D003074218D103000710D289
:1001D000020102D3020102D4020102C005123B0057
:1001E0000211C103101088C50103C60102C80C002A
:1001F0003236450616377577540C00CC0100F603ED
:10020000010100CF03008130ED0464031281E80393
:10021000851078CB05392C003402F70120EA020062
:1002200000B00100B102001BB40100C00121C101F6
:1002300011C5023F3CC701B5360148F20100260155
:1002400001E00F0F26240B0E0954A8460C17090FC6
:100250000700E10F00191B0410072A47390306069F
:1002600030380F360100B80101C0010EB00100C1E5
:100270000410100202C006003500000102C501048E
:10028000D2020104CA0100EA0180B903FF83577F4B
:10029000967F96B60125C0065050013C1E08B40753
:1002A0000240002A2A0D787F01F20B161603080877
:1002B000080810041616FD03110235B2050C0C00D7
:1002C0003333B70135BB012BC00104C20201FFC3A8
:1002D0000111C40120C6010FD002A4A1E00ED0007C
:1002E000050E150D3743470915121619E10ED000FA
:1002F000050D0C062D44400E1C1816193A01557FA9
:100300000AB00103E2013FC00122E20100B0010096
:10031000C0010AB001000000000000000000000061
:10032000000000000000FFFF0F0000040062080052
:1003300008080003000C01030B5A0203060903031B
:1003400017100403002305030017060309630703BE
:10035000090C08030C1009033222100016001100CA
:10036000010112000000130001000001300301012F
:1003700037020301000D800200610201B0C1FFFFDE
:1003800032000100000102000001030030100900EA
:1003900001000C000000900000800F00000010021F
:1003A00000001102EF001202000013028F0100058D
:1003B00000000105000002055F00010401000404C3
:1003C0000000FFFF320007000001FFFF32000002C3
:1003D000000001020000000000000000000000001A
:1003E000000000000100A4000100FFFF0A006000FF
:1003F00000270800080830001402310015373200C9
:1004000004063300160E34001122350000153600A4
:1004100007853700071438000314390020009000C6
:1004200015001000100411003702290046002A00B0
:100430004600070000001200890113000011FFFFB1
:1004400096001200B9010100000102000002030041
:100450003010090001000A0000000D0000000E002D
:100460003000610001006A0000008000000081008F
:10047000000082005F009200000193000107FFFF6F
:10048000500007000001E500F078010000010200C3
:100490000002030030100400000005000000080006
:1004A0000702090000000A0000000C0000000D0017
:1004B00000000F00000010000000110007001200F3
:1004C00000001300000007000100FFFFC80010003B
:1004D000901611002702FFFF320012000D00FFFFEF
:1004E00032001300001229000A002B000D00FFFF4C
:1004F0003200200000002100000030000000310028
:1005000004043200030035000504360008083700F3
:10051000070438000303390007073C0004053D00C9
:10052000080860000027610001006A0000008000E8
:1005300000008100000082000000830000008400B1
:1005400000008500000090001000920000000700ED
:100550003301E500008000000100010000010200FD
:100560000007030030100400000008000202090028
:1005700000000A0000000C0000000D0000000F0049
:10058000000010000000110007001200000013001E
:100590000000FFFF32001000B01711000700FFFF3E
:1005A0000A0012003A01FFFF0A001300001A290096
:1005B0000C00FFFF0A00300000003100050532008A
:1005C0000400350006003600070737000501380033
:1005D0000200390007073C0004073D0007086000DF
:1005E00000A7610001006A00000021000000200057
:1005F00000008000000081000000820000008300F5
:1006000000008400000085000000900010009200AF
:10061000000093000300950010019700000098006F
:10062000000007007301FFFF3200FF000100F3002C
:1006300008000000010001000001020000070300A3
:100640003010080002030900000010000000110033
:1006500007001200000013000000FFFF320010002E
:10066000B014FFFF0A0011000700FFFF0A0012008C
:100670008E001300000C29001500FFFF0A00300057
:10068000000031000701320000003500030236008F
:1006900002043700000038000702390000003C0067
:1006A00003023D000304600000A761000100900008
:1006B000290007003301FFFF3200150030009A00C7
:1006C0001000110020001000283412000200130056
:1006D0003810FFFF280012001200FFFF2800100052
:1006E000203413004530FFFF460030000000310089
:1006F0000204320007033300040334000400350011
:1007000001043600070737000503380010063900DA
:100710001006010000010200000303003010080071
:1007200008080A000800600000276100010090002E
:100730003E019200000193000001A0000030A300E0
:100740001000070001000700210007002300070038
:1007500033000700330111001A0012002131130089
:100760006C001400494210000008FFFF0A0011004D
:100770001A01FFFF0A0011001A03FFFF0A0011000F
:100780001A07FFFF0A0011001A0FFFFF0A001100ED
:100790003A0FFFFF1E0001002801020000010300C4
:1007A000301007001210080003030B0000110C00AA
:1007B00000000F0001181500200050000101510039
:1007C00003065200080453000000540005065500BB
:1007D0000604560003035700030358001000590095
:1007E000001007001200FFFF280007001300070099
:1007F000170000000000003E5B4F5B3E3E6B4F6BFE
:100800003E1C3E7C3E1C183C7E3C181C577D571CF1
:100810001C5E7F5E1C00183C1800FFE7C3E7FF006A
:1008200018241800FFE7DBE7FF30483A060E2629B8
:10083000792926407F050507407F05253F5A3CE77B
:100840003C5A7F3E1C1C08081C1C3E7F14227F2241
:10085000145F5F005F5F06097F017F006689956A0C
:10086000606060606094A2FFA29408047E04081097
:10087000207E201008082A1C08081C2A08081E10C0
:100880001010100C1E0C1E0C30383E3830060E3E78
:100890000E06000000000000005F000000070007D7
:1008A00000147F147F14242A7F2A12231308646201
:1008B00036495620500008070300001C2241000062
:1008C00041221C002A1C7F1C2A08083E08080080C0
:1008D0007030000808080808000060600020100858
:1008E00004023E5149453E00427F40007249494959
:1008F000462141494D331814127F1027454545398B
:100900003C4A49493141211109073649494936468E
:100910004949291E0000140000004034000000086E
:100920001422411414141414004122140802015911
:1009300009063E415D594E7C1211127C7F4949499E
:10094000363E414141227F4141413E7F4949494133
:100950007F090909013E414151737F0808087F0062
:10096000417F41002040413F017F081422417F40E8
:100970004040407F021C027F7F0408107F3E4141BF
:10098000413E7F090909063E4151215E7F0919292F
:1009900046264949493203017F01033F4040403F19
:1009A0001F2040201F3F4038403F6314081463035A
:1009B000047804036159494D43007F4141410204D9
:1009C000081020004141417F0402010204404040E0
:1009D0004040000307080020545478407F284444D6
:1009E000383844444428384444287F3854545418F0
:1009F00000087E090218A4A49C787F0804047800EB
:100A0000447D40002040403D007F102844000041CC
:100A10007F40007C047804787C08040478384444DF
:100A20004438FC1824241818242418FC7C080404D6
:100A300008485454542404043F44243C4040207C3F
:100A40001C2040201C3C4030403C44281028444C92
:100A50009090907C4464544C44000836410000005F
:100A6000770000004136080002010204023C262300
:100A7000263C1EA1A161123A4040207A38545455B8
:100A80005921555579412254547842215554784082
:100A900020545579400C1E5272123955555559390A
:100AA0005454545939555454580000457C4100025F
:100AB000457D420001457C407D1211127DF02825C4
:100AC00028F07C545545002054547C547C0A097FFE
:100AD0004932494949323A4444443A324A48483012
:100AE0003A4141217A3A42402078009DA0A07D3DC4
:100AF0004242423D3D4040403D3C24FF2424487E4C
:100B00004943662B2FFC2F2BFF0929F620C0887E36
:100B1000090320545479410000447D413048484A3B
:100B200032384040227A007A0A0A727D0D19317DEE
:100B30002629292F28262929292630484D402038C2
:100B40000808080808080808382F10C8ACBA2F1081
:100B50002834FA00007B000008142A142222142AE8
:100B600014085500550055AA55AA55AAFF55FF551A
:100B7000FF000000FF00101010FF00141414FF000D
:100B80001010FF00FF1010F010F0141414FC0014EB
:100B900014F700FF0000FF00FF1414F404FC141409
:100BA00017101F10101F101F1414141F0010101006
:100BB000F0000000001F101010101F10101010F097
:100BC00010000000FF101010101010101010FF1077
:100BD000000000FF140000FF00FF00001F101700BE
:100BE00000FC04F414141710171414F404F4000097
:100BF000FF00F714141414141414F700F714141449
:100C0000171410101F101F141414F4141010F010E7
:100C1000F000001F101F0000001F14000000FC1453
:100C20000000F010F01010FF10FF141414FF141047
:100C300010101F00000000F010FFFFFFFFFFF0F09A
:100C4000F0F0F0FFFFFF0000000000FFFF0F0F0FAC
:100C50000F0F3844443844FC4A4A4A347E020206A4
:100C600006027E027E0263554941633844443C04D7
:100C7000407E201E2006027E020299A5E7A5991C4F
:100C80002A492A1C4C7201724C304A4D4D30304872
:100C9000784830BC625A463D3E494949007E0101D0
:100CA000017E2A2A2A2A2A44445F444440514A4465
:100CB0004040444A51400000FF0103E080FF000033
:100CC00008086B6B083612362436060F090F06002B
:100CD0000018180000001010003040FF0101001F34
:100CE00001011E00191D1712003C3C3C3C00000095
:100CF0000000010210202008081020401020408031
:100D000002010201080402010102040810204080CF
:100D1000804020100804020180040201804020105D
:100D200008040201080402010102040810204080A6
:100D30000102040810204080000022002500280045
:100D40002B002E00310034000201000005010801D3
:100D50000B0105050505070508080808020202023F
:100D60000A0A080804040404010101010101010147
:100D70000303030303030303040707070C0C0C0C12
:100D80000C0C0C0C020202020606060606060606FB
:100D90000B0B0B0B0B0B0B0B00002100240027008F
:100DA0002A002D003000330001010000040107017A
:100DB0000A01B629A42B11241FBECFEFD1E2DEBF5A
:100DC000CDBF00E00CBF12E0A0E0B2E0EAE7F1E640
:100DD00000E00BBF02C007900D92AC38B107D9F705
:100DE00026E0ACE8B2E001C01D92AD31B207E1F7F8
:100DF00016E0CAEDD6E000E006C021970109802F79
:100E0000FE010E94A330C93DD10780E00807A9F781
:100E10000E94E91E0C94DA2B0C940000EF92FF92D2
:100E20000F931F93DC011A960D911C911B97189636
:100E30002D913C911997ED91FC91048CF58DE02D4D
:100E40007B0140E050E060E070E019951F910F9148
:100E5000FF90EF900895EF92FF920F931F93CF931F
:100E6000DF93EC01EE24EA94FE2C08E110E020EE82
:100E700031E040E050E060E070E088E795E00E94FB
:100E8000C816E8E7F5E0138A128A118A108A85E00D
:100E900090E09587848784E090E09787868782E05A
:100EA000848BBE01CF01DF91CF911F910F91FF90F5
:100EB000EF900C948E1DEF92FF920F931F93DC0125
:100EC000ED91FC91048CF58DE02D780101E010E0AE
:100ED00019951F910F91FF90EF900895EF92FF9257
:100EE0000F931F93DC01ED91FC91048CF58DE02DA7
:100EF0007801890121E030E019951F910F91FF9051
:100F0000EF9008950895FC016370658B848195814D
:100F100026813781613039F0633029F091878087ED
:100F200033872287089531872087938782870895A2
:100F30006F927F928F929F92AF92BF92CF92DF92E9
:100F4000EF92FF920F931F93CF93DF93EC014B012E
:100F50005A0169013801E881F9810680F781E02DA5
:100F60001995E881F9810684F785E02D87019601BE
:100F7000A501B401CE011995A501460D571D41509B
:100F80005109E881F9810684F785E02D9601B401C5
:100F9000CE011995E881F9810484F585E02D93014E
:100FA000A501B401CE011995C80CD91CB601615038
:100FB0007109E881F9810484F585E02D9301A5018B
:100FC000CE011995E881F9810288F389E02DCE01DF
:100FD000DF91CF911F910F91FF90EF90DF90CF9015
:100FE000BF90AF909F908F907F906F9019948F9249
:100FF0009F92AF92BF92CF92DF92EF92FF920F93A8
:101000001F93CF93DF934C016B015A01E901DC017F
:10101000ED91FC916217730781F40417150724F40E
:101020008B2D5801042F182F0A191B0998012F5FC7
:101030003F4F008CF18DE02D12C04017510709F58C
:101040002617370724F48D2D6901C62FD82F9E014E
:101050002C193D092F5F3F4F028CF38DE02D870146
:10106000A501B601C4011995DF91CF911F910F9190
:10107000FF90EF90DF90CF90BF90AF909F908F90B8
:1010800008950680F781E02D1995D401ED91FC912A
:101090000088F189E02D9E01A501B601C4011995D2
:1010A000D401ED91FC910288F389E02DC401DF9118
:1010B000CF911F910F91FF90EF90DF90CF90BF9055
:1010C000AF909F908F901994EF92FF920F931F9380
:1010D000DC011A960D911C911B9718962D913C914D
:1010E0001997ED91FC91048CF58DE02D7B0140E08A
:1010F00050E060E070E019951F910F91FF90EF9024
:1011000008954F925F926F927F928F929F92AF92CB
:10111000BF92CF92DF92EF92FF920F931F93CF93E4
:10112000DF936C012B015A0139014801DC01ED917B
:10113000FC910680F781E02D1995E201640C751C85
:10114000D601ED91FC91C615D7055CF40484F585B4
:10115000E02D87019401A501BE01C60119952196D4
:10116000EFCF0288F389E02DC601DF91CF911F9167
:101170000F91FF90EF90DF90CF90BF90AF909F9036
:101180008F907F906F905F904F9019948F929F9265
:10119000AF92BF92CF92DF92EF92FF920F931F9385
:1011A000CF93DF93EC015B014A016901E881F9818A
:1011B0000680F781E02D199595012C0D3D1D2150DC
:1011C0003109E881F9810088F189E02D78018401F5
:1011D000A401B501CE011995E881F9810288F3894E
:1011E000E02DCE01DF91CF911F910F91FF90EF90F5
:1011F000DF90CF90BF90AF909F908F9019948F9277
:101200009F92AF92BF92CF92DF92EF92FF920F9395
:101210001F93CF93DF93EC015B014A0169017801D1
:10122000E881F9810680F781E02D1995C80CD91C59
:10123000860101501109E881F9810088F189E02DCA
:101240009501A401B501CE011995E881F9810288C3
:10125000F389E02DCE01DF91CF911F910F91FF9087
:10126000EF90DF90CF90BF90AF909F908F901994A8
:10127000AF92BF92CF92EF92FF920F931F93CF93B3
:10128000DF93EC01262F888D998D009709F040C0DF
:101290006A3059F41D861C862C898E859F8538E01E
:1012A000239F800D911D112441C06D3009F4AAC007
:1012B0008E898823C1F03C898C859D8546E0349FCA
:1012C000800D911D112448855985481759075CF4F4
:1012D0001D861C868E859F8548E0349F800D911D5C
:1012E00011249F878E87EA88FB88088919894E8593
:1012F0005F856C857D85CC88CE010E9470122C891B
:101300008C859D8536E0239F800D911D112442C060
:101310006A3079F41D861C862C89FC013696E4918E
:101320008E859F852E9F800D911D11249F878E870E
:1013300069C06D3009F466C0FC01349634916317BE
:1013400008F460C03196E491E61708F45BC0FC0134
:10135000329665917491422F50E0431B510937E05A
:10136000349F5001359FB00C1124A60EB71EF50115
:10137000329634913196E491332311F0E1110DC08E
:10138000F5013496E4912C898C859D85E29F800D32
:10139000911D11249D878C8735C0F50135964491A8
:1013A0005E89552311F16C89E32FF0E0E40FF11D04
:1013B00047FDFA956E9FD0016F9FB00D11244C85AB
:1013C0005D854A0F5B1FE885F985E417F5076CF426
:1013D0001D861C86FC013696E4918E859F856E9F46
:1013E000800D911D11249F878E87EA88FB880889CC
:1013F00019894E855F856C857D85CC88CE010E94DC
:101400007012BECF81E090E0DF91CF911F910F91DC
:10141000FF90EF90CF90BF90AF9008958B988A98EF
:1014200020910201277820930201A5982EB1277CF4
:101430002EB970910201292F3327F901E370FF279C
:10144000A5E0EE0FFF1FAA95E1F7E72BE09302015D
:101450007EB1F901EC70FF27EE0FFF1FEE0FFF1FAB
:10146000E72BEEB974B3F901E071FF27EE0FFF1F10
:10147000E72BE4BB7EB1F901E072FF27F595E79514
:10148000F595E795E72BEEB970910201207C3327A3
:10149000E3E035952795EA95E1F7272B20930201A4
:1014A0008998899A20910201277820930201A598B2
:1014B0002EB1277C2EB9709102019C012370332735
:1014C000F5E0220F331FFA95E1F7272B2093020155
:1014D0007EB19C012C703327220F331F220F331F44
:1014E000272B2EB974B39C0120713327220F331F91
:1014F000272B24BB7EB19C0120723327359527957D
:1015000035952795272B2EB9709102019C01207CDF
:101510003327F3E035952795FA95E1F7272B2093AC
:1015200002018998899A8A9AFA01A0918D027FEF27
:10153000760F16160CF0C7C0219130910201377852
:1015400030930201A5983EB1377C3EB9609102010B
:10155000322F3370B0E23B9FA0011124462B409301
:1015600002016EB1322F3C70B4E03B9FA001112408
:10157000462B4EB944B3322F3071330F342B34BB6A
:101580006EB1322F3072432F50E0559547955595E7
:101590004795462B4EB930910201207C2695269521
:1015A0002695232B209302018998899A711102C0F4
:1015B000672FBDCFAA23E1F301968A9820910201FB
:1015C000277820930201A5982EB1277C2EB960912F
:1015D0000201292F3327A90143705527B5E0440F95
:1015E000551FBA95E1F7462B409302016EB1A90150
:1015F0004C705527440F551F440F551F462B4EB9AD
:1016000064B3A90140715527440F551F462B44BBB5
:101610006EB1A90140725527559547955595479547
:10162000462B4EB940910201207C332753E035957B
:1016300027955A95E1F7242B209302018998899ADE
:1016400020910201277820930201A5982EB1277CD2
:101650002EB9409102019C012370332765E0220FCF
:10166000331F6A95E1F7242B209302014EB19C01B0
:101670002C703327220F331F220F331F242B2EB938
:1016800044B39C0120713327220F331F242B24BB2A
:101690004EB19C01207233273595279535952795B6
:1016A000242B2EB9409102019C01207C3327B3E00A
:1016B00035952795BA95E1F7242B20930201899857
:1016C000899A8A9A75CF8B9A08958B988A98E2E0C6
:1016D000F1E0208127782083A5982EB1277C2EB9B0
:1016E000A081292F3327A90143705527B5E0440F66
:1016F000551FBA95E1F74A2B4083AEB1A9014C7052
:101700005527440F551F440F551F4A2B4EB9A4B3FC
:10171000A90140715527440F551F4A2B44BBAEB158
:10172000A9014072552755954795559547954A2BE0
:101730004EB94081207C332753E0359527955A9543
:10174000E1F7242B20838998899A208127782083A8
:10175000A5982EB1277C2EB940819C012370332798
:10176000A5E0220F331FAA95E1F7242B20834EB169
:101770009C012C703327220F331F220F331F242B81
:101780002EB944B39C0120713327220F331F242B21
:1017900024BB4EB19C012072332735952795359592
:1017A0002795242B2EB92081807C9927B3E095952D
:1017B0008795BA95E1F7822B80838998899A8A9ACE
:1017C000808187788083A5988EB1877C8EB940818F
:1017D000872F99279C012370332755E0220F331F51
:1017E0005A95E1F7242B20834EB19C012C703327AE
:1017F000220F331F220F331F242B2EB944B39C0119
:1018000020713327220F331F242B24BB4EB19C01A0
:10181000207233273595279535952795242B2EB99A
:101820002081807C9927A3E095958795AA95E1F77B
:10183000822B80838998899A808187788083A59874
:101840008EB1877C8EB92081CB0183709927B5E05A
:10185000880F991FBA95E1F7822B80832EB1CB01B7
:101860008C709927880F991F880F991F822B8EB92A
:1018700024B3CB0180719927880F991F822B84BBD9
:101880002EB1CB018072992795958795959587956F
:10189000822B8EB98081607C7727A3E07595679550
:1018A000AA95E1F7682B60838998899A8B9A0895A5
:1018B000DF92EF92FF920F931F93CF93DF93CDB7F9
:1018C000DEB72A970FB6F894DEBF0FBECDBF7C01FE
:1018D000862F8370D70155968C935597462F41706C
:1018E00060FF05C016962D913C91179703C0F70134
:1018F00024813581D70119963C932E931897442360
:1019000029F014962D913C91159703C0F70126817B
:101910003781D7011B963C932E931A97823041F062
:10192000833041F0813011F088E405C088E203C0C3
:1019300088E901C088EF8A87F701248D358D30FF53
:1019400003C08A8580588A8731FF04C09A8580E465
:1019500089278A8733FF04C09A8588E089278A8788
:10196000D7015E968D919C915F9720FFD5C0109115
:101970008D028431B8E69B07F9F49A85892F881F78
:101980008827881F8295880F880F807C96FD02C06B
:1019900020E001C020E298729A871F828260822B29
:1019A00088878BE38987AE01495F5F4F63E086EBF1
:1019B00090E00E940E0A89C08336E9E19E0741F05B
:1019C0008138F4E99F0721F0813125E1920709F57B
:1019D0002A8527FF02C021602A872A8526FF02C0A8
:1019E00022602A87833639E1930719F48A858F7339
:1019F0000EC0813844E9940719F48A858F7207C0B4
:101A00008131954109F061C08A858F7E806C8A871B
:101A10005CC0112309F459C062E070E0F70177A3BC
:101A200066A326E030E031A720A7E2E2F0E0D7018C
:101A30009B96FC93EE939A979D967C936E939C97BE
:101A400064E070E09F967C936E939E97D1963C9352
:101A50002E93D09728E030E0D3963C932E93D297E4
:101A60008536910521F58A85982F916084FD02C005
:101A70009A8703C083ED89278A87442351F082E83F
:101A800090E0F70197A386A380E890E091A780A754
:101A900032C280E890E0D70197969C938E939697F8
:101AA00082E890E099969C938E93989724C2823511
:101AB000924501F58A85982F926084FD02C09A872D
:101AC00019C084ED89278A8715C02AE230E0F70122
:101AD00037A326A38BE290E091A780A74CE250E0C9
:101AE00053A742A735A724A737A726A791AB80AB5A
:101AF00093AB82AB1111FFC186E390E0AE01465F6C
:101B00005F4F61E00E940E0A8A8590E0D7019396AC
:101B10009C938E939297E6C02A858339B7E79B07FB
:101B200009F448C050F48435F1E09F0781F0803219
:101B300034E5930709F081C03DC0863243E994073C
:101B4000C9F18930A5EB9A0709F077C033C087E364
:101B500090E0F70195A784A786E390E097A786A772
:101B600089E390E091AB80AB88E390E093AB82ABEC
:101B700080E290E097A386A381E290E091A780A7FE
:101B800082E290E093A782A7822F022E000C990B8D
:101B90008827990F881F9927982F8827990F26FD46
:101BA00003C060E070E002C060E071E08862682B12
:101BB000792B82C040E052E0D70197965C934E9318
:101BC000969741E052E099965C934E93989742E045
:101BD00052E09B965C934E939A9740E152E09D961B
:101BE0005C934E939C9741E152E09F965C934E9399
:101BF0009E9742E152E0D1965C934E93D09743E199
:101C000052E0D3965C934E93D29727FD03C020E019
:101C100030E002C020E030E88632B3E99B0731F0C3
:101C20008032944519F060E07AE602C060E075E326
:101C3000622B732B80E094E035C080E290E0D70106
:101C400097969C938E93969781E290E099969C93B9
:101C50008E93989782E290E09B969C938E939A97AE
:101C600080E590E09D969C938E939C9781E590E013
:101C70009F969C938E939E9782E590E0D1969C933D
:101C80008E93D09783E590E0D3969C938E93D297D2
:101C900027FD03C060E070E002C060E070E877629A
:101CA00080E690E00E94650B8A8586FD03C060E0B7
:101CB00070E002C060E071E081E090E00E94650B9E
:101CC0008A8585FD03C060E070E002C068E070E0D6
:101CD00083FD70616063F70173A362A383E090E00A
:101CE0000E94650BD70155968C91559780FF36C0A1
:101CF0005C968D919C915D9792FD30C096968D91EA
:101D00009C91979798962D913C91999797963C9393
:101D10002E93969799969C938E9398979C968D91D7
:101D20009C919D97D0962D913C91D1979D963C93F7
:101D30002E939C97D1969C938E93D0979E968D913F
:101D40009C919F97D2962D913C91D3979F963C93CF
:101D50002E939E97D3969C938E93D297F7010285EC
:101D6000138501501109208531852150310940E04A
:101D700050E060E070E0C7010E94F915D7011696A7
:101D80006D917C9117975E968D919C915F978732AC
:101D9000B3E99B0741F4F70125892250223018F45A
:101DA00000E210E002C000E010E08732F3E99F0794
:101DB00029F022273327201B310B04C020E230E01A
:101DC000201B310BD7015C964C9140FF45C0198216
:101DD000D02E0A837B836C833D832E8310918D02EA
:101DE000111103C083E390E002C08EE090E0AE01E9
:101DF0004F5F5F4F66E00E940E0A1982DA8211116E
:101E000003C087E390E002C084E190E0AE014F5F41
:101E10005F4F62E00E940E0A112389F01982F701D8
:101E2000868D978D8734934819F081E090E002C049
:101E300088E190E0AE014F5F5F4F61E00AC0D701DB
:101E40005C968C9180FF5AC040E050E060E083E1F6
:101E500090E00E940E0A52C08339B7E79B0779F1E0
:101E600060F48032F4E59F0751F1833827E7920749
:101E700081F08435914089F510C0863243E994079A
:101E8000F1F08930A5EB9A07D1F08532924929F516
:101E900004C0F70160A171A124C0600F711F6150DF
:101EA000710981E390E00E94650BB80182E390E044
:101EB0000E94650B60E070E083E390E019C0D701F9
:101EC00090966D917C919197626081E094E00E9480
:101ED000650BB80184E094E00BC0F70160A171A12B
:101EE000626081E690E00E94650BB8018AE690E0AE
:101EF0000E94650B03C086E190E000CE2A960FB6E3
:101F0000F894DEBF0FBECDBFDF91CF911F910F912F
:101F1000FF90EF90DF9008950895FC01848D958DDA
:101F2000292F22952F7030E021703327A9014627F1
:101F3000BA0171A360A380FF0CC0672B19F480E283
:101F400090E002C081E290E040E050E060E00C945C
:101F50000E0A868D978D833957E79507E1F040F497
:101F6000843541E0940779F080329445C1F413C080
:101F7000863223E9920779F0893045EB940759F0CE
:101F80008532924961F4660F771F660F771F636190
:101F900087E090E006C0626081E094E002C081E6E4
:101FA00090E00C94650B8091940290919502893C8D
:101FB00021E0920734F40C9690939502809394025A
:101FC0000DC010929502109294028091920290910D
:101FD0009302409690939302809392028091920292
:101FE000909193022091940230919502309385054F
:101FF00020938405909387058093860508958091AA
:10200000940290919502892B99F48091920290917B
:1020100093028931910534F0409790939302809315
:10202000920206C08CE090E0909395028093940217
:1020300080919402909195020C9720EE31E0B901C5
:102040000E947B3080529E4FB9010E947B3090935A
:102050009502809394022091920230919302909382
:102060008505809384053093870520938605089520
:1020700081E08093AC05E1E0F1E0808188678083B6
:102080009D9A8DB188638DB9809A819A829A839A3C
:10209000849A8B9A889A899A8C9A62E370E080E09D
:1020A00090E00E94791E8C9864E670E080E090E0F9
:1020B0000E94791E8C9A64E670E080E090E00E94B5
:1020C000791E60E070E080EB90E00C94650B0F935C
:1020D0001F93CF93DF93EC01162F8091AC058111F4
:1020E00002C00E9438108B988A98809102018778EC
:1020F00080930201A5988EB1877C8EB94091020130
:102100008D2F99279C012370332755E0220F331F11
:102110005A95E1F7242B209302014EB19C012C70BB
:102120003327220F331F220F331F242B2EB944B322
:102130009C0120713327220F331F242B24BB4EB167
:102140009C01207233273595279535952795242BAB
:102150002EB920910201807C9927F3E0959587950F
:10216000FA95E1F7822B809302018998899A8091F0
:102170000201877880930201A5988EB1877C8EB981
:1021800020910201CE0183709927A5E0880F991F45
:10219000AA95E1F7822B809302012EB1CE018C70BB
:1021A0009927880F991F880F991F822B8EB924B306
:1021B000CE0180719927880F991F822B84BB2EB185
:1021C000CE01807299279595879595958795822B55
:1021D0008EB980910201C07CDD2743E0D595C7957B
:1021E0004A95E1F7C82BC09302018998899A8A9A87
:1021F000809101018778809301019D988DB1877C42
:102200008DB961E070E080E090E00E94791E889ACC
:10221000889888988898609100018CB1A2B34CB1DD
:1022200000910001889A889A889888988898E09107
:102230000001FCB132B32CB1C0910001889A115059
:1022400017FFE5CF889A8B9A909101019867909338
:1022500001019D9A9DB198639DB9487050E0440F6B
:10226000551F440F551F087198E0099F80011124E4
:10227000402B512BA072B0E0B595A7954A2B5B2B54
:10228000807390E09595879595958795482B592B68
:10229000607670E0B5E075956795BA95E1F7462BE5
:1022A000572B542F44272870220F220F8C2F887110
:1022B00098E0899FE00111249C2F922B3072232FEC
:1022C00030E035952795292B9F2F907396959695FD
:1022D000922B2E2F2076229526952770292BCA0126
:1022E000822BDF91CF911F910F910895FF920F9351
:1022F0001F93CF93DF93EC0160E00E9467108C0185
:1023000061E0CE010E946710F82E62E0CE010E94CB
:10231000671020E030E0302F22271127002740E00F
:1023200050E05F2D60E070E0042B152B262B372B3F
:10233000492F50E060E070E0CB01BA01602B712BB7
:10234000822B932BDF91CF911F910F91FF900895D6
:102350000F931F93CF93DF938C0160E00E9467106F
:10236000EC0161E0C8010E946710AC01CE01A0E061
:10237000B0E0DC019927882760E070E08C019D01C6
:10238000042B152B262B372BC901B801DF91CF91D8
:102390001F910F9108954F925F926F927F928F924B
:1023A0009F92AF92BF92CF92DF92EF92FF920F93E4
:1023B0001F93CF93DF93CDB7DEB7A1970FB6F894F5
:1023C000DEBF0FBECDBF5C016B01770FEE08FF08CB
:1023D000F7FE37C06DE20E94721D8C01F094E0940C
:1023E000D094C094C11CD11CE11CF11C19A2CE01D7
:1023F00081964C013AE0432E512C612C712CC7017F
:10240000B601A30192010E94242C8C2D9AE0299FF1
:1024100080191124E1E08E1A91088A3014F4805D4D
:1024200001C0895CF401808369017A01232B242B8C
:10243000252B29F7B401C5010E94791D080F191F2A
:102440002BC09C2C7D2DC70119A28E010F5D1F4F43
:102450002AE0C22ED12CE12CF12C692DA701960186
:102460000E94242C692DFAE02F9F6019112401503D
:1024700011096A3014F4605D01C0695CF801608381
:10248000922E732FCA01232B242B252B31F7B80151
:10249000C5010E94791D8C016DE0C5010E94721D6D
:1024A0007C016AE0C5010E94721D0E0D1F1D800F88
:1024B000911FA1960FB6F894DEBF0FBECDBFDF917E
:1024C000CF911F910F91FF90EF90DF90CF90BF9031
:1024D000AF909F908F907F906F905F904F900895F6
:1024E0002F923F924F925F926F927F928F929F9224
:1024F000AF92BF92CF92DF92EF92FF920F931F9312
:10250000CF93DF93CDB7DEB76B970FB6F894DEBFEE
:102510000FBECDBF9B8F8A8F5B011A01D22E1F8306
:102520000E833701C982DC0158962D913C91599751
:102530002115310509F0E6C018968D919C911997E7
:10254000681779070CF0CDC11A968D919C911B9755
:10255000481759070CF0C5C18C2C912CFB0126E0C3
:10256000C29EE00DF11D1124FB87EA871E161F068F
:102570000CF0B7C1A40183E0440F551F8A95E1F721
:102580005D874C87CA01820D931D181619060CF041
:10259000A8C157968C91811104C05FEA5D1508F4BB
:1025A000D394AA8DBB8DED91FC9111970680F78194
:1025B000E02DCD011995B5E0DB9EC0011124F50198
:1025C0003596FF87EE87BB82AA8225019C012A19D6
:1025D0003B09398B288BA101485F5F4F5B8B4A8B8E
:1025E000E889F989E40DF51DEE50F84F54915887AC
:1025F00061013D822C82888580FF13C0AA8DBB8D2E
:10260000ED91FC91B981B13031F40084F185E02D78
:102610002E813F8116C00284F385E02DEE80FF807D
:102620001AC0EE81FF81E615F705F1F0AA8DBB8D8A
:10263000ED91FC91B981B13051F40084F185E02D28
:102640009301A601B2018A8D9B8D19950DC002845C
:10265000F385E02D7301840194014C815D816A81D1
:102660007B818A8D9B8D1995E885E695E887FFEF3C
:10267000CF1ADF0A2C813D81280D391D3D832C8323
:102680004A895B89C416D50609F0B5CF5FEF451AB4
:10269000550A8A819B81880D991D9B838A83AE850B
:1026A000BF854A165B0609F09BCFEE81FF81E615D8
:1026B000F70509F4F4C0EA8DFB8DA081B181F981A1
:1026C000F13079F4B5016B5F7F4F1C96ED91FC9171
:1026D0001D97830128E030E0A1018A8D9B8D19951B
:1026E000DEC06A857B85681979091A96ED91FC919F
:1026F0001B9773010C851D859401A1018A8D9B8D0B
:102700001995CDC0F9013496E491DE1AF90132969B
:1027100085919491B7E0DB9E800D911D1124F90104
:10272000259134913B8B2A8BFC0125913491290111
:10273000FC013296C490319634913E8732961491C2
:102740003196D4904981423058F0612E012E000C10
:1027500077088D2D0D2C000C990B9987888704C064
:1027600019861886612C712CAA8DBB8DED91FC9178
:1027700011970680F781E02DCD011995B9818B2E37
:10278000912C689CC001699C900D789C900D11243F
:10279000FC01EA0DFB1DFD87EC871A82712C612C70
:1027A000E12F110FFF0B95012E0F3F1F3B872A874B
:1027B000AC0CB11CA5014E0F5F1F5F8B4E8BC1018E
:1027C0008D0D911DD7FC9A95998F888F9E856916DE
:1027D00008F065C0862D90E048855985480F591F3F
:1027E000489D9001499D300D589D300D1124D10117
:1027F000A20FB31FB98BA88BEC85FD85FD83EC83FD
:10280000AA84BB84DA80FA85DF1A288D398D280FD7
:10281000391F3D8B2C8B8D2D8A0D4E895F89A41617
:10282000B506C1F1877041F4C2010196EA89FB89BE
:10283000E40DF51D74902C0177FE21C0AA8DBB8D8F
:10284000ED91FC91B981B13061F40084F185E02D06
:102850002E813F814C895D89B5018A8D9B8D1995AB
:102860000EC00284F385E02DEE80FF808401940188
:10287000488959896C817D818A8D9B8D1995770C4A
:10288000EFEFAE1ABE0A2C813D81280D391D3D8324
:102890002C83C1CF3A813C0D3A83639497CFAA8DA4
:1028A000BB8DED91FC9111970288F389E02DCD014C
:1028B0006B960FB6F894DEBF0FBECDBFDF91CF9100
:1028C0001F910F91FF90EF90DF90CF90BF90AF904E
:1028D0009F908F907F906F905F904F903F902F9040
:1028E00019946B960FB6F894DEBF0FBECDBFDF9183
:1028F000CF911F910F91FF90EF90DF90CF90BF90FD
:10290000AF909F908F907F906F905F904F903F908F
:102910002F900895863308F0865390917B00282FDE
:102920002870977F922B90937B00877080648093B0
:102930007C0080917A00806480937A0080917A0094
:1029400086FDFCCF809178002091790090E0922B59
:1029500008950F931F93CF93DF93EC018B01101613
:102960001106B4F4FE01859194912496FE013297EC
:10297000659174918F3F2FEF920729F480E090E0EA
:102980000E94791E02C00E94650B04501109E7CF16
:10299000DF91CF911F910F910895DF92EF92FF92F7
:1029A0000F931F93CF93DF93CDB7DEB768970FB622
:1029B000F894DEBF0FBECDBF7C018B01101611064F
:1029C00054F5F70184913196D490F2E0EF0EF11CAA
:1029D0008F3741F46D2D70E080E090E00E94791E09
:1029E000D12C13C02E2DDE011196F701AD019E2FC3
:1029F000921B9D1520F494919D933196F8CFED0C88
:102A0000F11C6D2D90E00E940E0AED2DF0E0329643
:102A10000E1B1F0BD3CF68960FB6F894DEBF0FBE08
:102A2000CDBFDF91CF911F910F91FF90EF90DF907D
:102A30000895AF92BF92CF92DF92EF92FF920F93E1
:102A40001F93CF93DF937C016B01DB011496AD9054
:102A5000BC901597B2E0AB16B10428F4850182E072
:102A6000A82EB12C02C002E010E066E672E0C701B9
:102A70000E94271EF601C481D581C017D107C0F17D
:102A8000AC16BD0608F4E501D601ED91FC91119755
:102A9000EC0FFD1FB08010826D917C91600F711F53
:102AA0006115710561F0FB0101900020E9F7319794
:102AB000AF01461B570BC7010E94E21D13C0F7016F
:102AC00080819181009711F00E94ED2CD701119621
:102AD0001C921E9215961C921E92149713961C928D
:102AE0001E921297F60180819181C80FD91FB8827A
:102AF000C701DF91CF911F910F91FF90EF90DF9071
:102B0000CF90BF90AF9008958F929F92AF92BF9257
:102B1000EF92FF920F931F93CF93DF93CDB7DEB762
:102B2000AF970FB6F894DEBF0FBECDBF7C018FB755
:102B3000F89480908E0290908F02A0909002B090B6
:102B400091028FBF00E02FB7F89480918E02909190
:102B50008F02A0919002B09191022FBF881999091C
:102B6000AA09BB09893E9340A105B10558F586EB3A
:102B700094E00E94331B892B39F186EB94E00E948C
:102B8000F71A182FE1E0F0E0EC0FFD1FE00FF11D48
:102B900080830F5F8A3099F4BE016F5F7F4FCE0153
:102BA00089960E94271EBE01675D7F4FC7010E9464
:102BB000AC1DCE0189960E94221E81E009C08D3095
:102BC00011F6EACF80E004C01A3009F0BCCFE4CFA0
:102BD000AF960FB6F894DEBF0FBECDBFDF91CF9199
:102BE0001F910F91FF90EF90BF90AF909F908F90AB
:102BF00008958F929F92AF92BF92CF92DF92EF9201
:102C0000FF920F931F93CF93DF9300D01F92CDB706
:102C1000DEB77C015B016A014901FC01868D978D5D
:102C20008732F3E99F0799F4F7018589823031F4FF
:102C3000F0E2CF0ED11C005E1F4F1EC08330E1F4C6
:102C400020E2A20EB11C80E2880E911C15C08632D3
:102C5000954191F4F701858980FF0EC0C801841B5E
:102C6000950B19F40F5F1F4F07C06217730721F40C
:102C70004B01880E991E8A01F701848D80FF3BC0AD
:102C800084A5B982AA829B828C82AE014F5F5F4F7E
:102C900064E090E00E940E0AF70180A9D982CA82FE
:102CA0001B830C83AE014F5F5F4F64E090E00E9496
:102CB0000E0A80918D02882309F459C0F701868D90
:102CC000978D8536910509F052C0B982AA82AE016E
:102CD0004F5F5F4F62E086A197A10E940E0AD982E2
:102CE000CA82AE014F5F5F4F62E0F70180A591A5F8
:102CF0000E940E0A3CC0B501F70186A197A10E946F
:102D0000650BB601F70180A591A50E94650B8A1499
:102D10009B0419F40C151D0551F1F701848D85FFF5
:102D20000EC0858980FF06C0102F0027C02AD12A37
:102D3000860105C0982C8824A828B9284501B5012A
:102D4000F70184A595A50E94650BB601F70180A93E
:102D500091A90E94650BB401F70186A597A50E9471
:102D6000650BB801F70182A993A90E94650B0F902A
:102D70000F900F900F90DF91CF911F910F91FF90C7
:102D8000EF90DF90CF90BF90AF909F908F9008957D
:102D9000AF92BF92CF92DF92EF92FF920F931F9369
:102DA000CF93DF93EC0180911306882349F0C7018C
:102DB0008F719927880F991FE1ECEE22E82AF92AF2
:102DC00037FF05C0620F731F319521953109260F1A
:102DD000371F77FF02C060E070E0E885F9852E17A5
:102DE0003F070CF4F9015F01A61AB70A17FF05C0E7
:102DF000400F511F119501951109CA01800F911FB4
:102E000057FF02C040E050E00A851B8580179107FC
:102E10000CF48C016801C41AD50A015011099F01F4
:102E200021503109CE010E94F9158B988A988AA504
:102E30009BA520910201277820930201A5982EB12D
:102E4000277C2EB960910201292F3327A9014370F5
:102E5000552705E0440F551F0A95E1F7462B40938F
:102E600002016EB1A9014C705527440F551F440F44
:102E7000551F462B4EB964B3A90140715527440F25
:102E8000551F462B44BB6EB1A9014072552755957D
:102E9000479555954795462B4EB940910201207CA8
:102EA0003327A3E035952795AA95E1F7242B2093A6
:102EB00002018998899A20910201277820930201C2
:102EC000A5982EB1277C2EB9409102019C01237058
:102ED0003327B5E0220F331FBA95E1F7242B209357
:102EE00002014EB19C012C703327220F331F220F99
:102EF000331F242B2EB944B39C0120713327220F9A
:102F0000331F242B24BB4EB19C01207233273595EF
:102F1000279535952795242B2EB920910201807C89
:102F2000992763E0959587956A95E1F7822B8093C1
:102F300002018998899A8A9AAC14BD042CF49A2DBE
:102F40008B2D5601C92ED82E8F2D99279C012370C9
:102F500033272295220F207EAC014C705527342F49
:102F6000330F330FAC0140715527440FBC017695E8
:102F7000679576956795562F587063E09695879577
:102F80006A95E1F78871B70163707727962F92955C
:102F9000990F907EB7016C707727660F660FF70167
:102FA000E071FF277E2F770FD701B695A795B695CD
:102FB000A795A870F701B3E0F695E795BA95E1F704
:102FC0001E2F18711C141D040CF043C0F501B091A4
:102FD0000201B778B0930201A598BEB1B77CBEB923
:102FE000B0910201B22BB0930201BEB1B32BBEB9B6
:102FF000B4B3B42BB4BBBEB1B52BBEB9B091020112
:10300000B82BB09302018998899AB0910201B778E0
:10301000B0930201A598BEB1B77CBEB9B0910201D0
:10302000B92BB0930201BEB1B62BBEB9B4B3B72B66
:10303000B4BBBEB1BA2BBEB9B0910201B12BB093F3
:1030400002018998899A319711F6E1E0CE1AD108E8
:10305000B9CF8B9A8C8D80FF08C08E8D9F8D863264
:10306000954191F48D8980FF0FC00A851B85015021
:103070001109288539852150310940E050E060E090
:1030800070E0CE010E94F915DF91CF911F910F9151
:10309000FF90EF90DF90CF90BF90AF900895EF92A8
:1030A000FF920F931F93CF93DF937C01E90177FD8C
:1030B00069C157FD67C1FC01808591856817790753
:1030C0000CF060C182859385481759070CF05AC1EE
:1030D00080911306882341F0CE018F719927880FC4
:1030E000991FC17CC82BD92B8A019B01C7010E9463
:1030F000F91580918D02882309F438C18B988A983C
:10310000F70182A593A5209102012778209302015F
:10311000A5982EB1277C2EB960910201292F332763
:10312000A9014370552775E0440F551F7A95E1F7C3
:10313000462B409302016EB1A9014C705527440FF4
:10314000551F440F551F462B4EB964B3A90140715A
:103150005527440F551F462B44BB6EB1A901407241
:1031600055275595479555954795462B4EB940910E
:103170000201207C3327B3E035952795BA95E1F716
:10318000242B209302018998899A209102012778A3
:1031900020930201A5982EB1277C2EB940910201FF
:1031A0009C012370332715E0220F331F1A95E1F796
:1031B000242B209302014EB19C012C703327220F47
:1031C000331F220F331F242B2EB944B39C012071CF
:1031D0003327220F331F242B24BB4EB19C012072B6
:1031E00033273595279535952795242B2EB9209192
:1031F0000201807C992773E0959587957A95E1F790
:10320000822B809302018998899A8A9A2C2F220F07
:10321000220F220F80910201877880930201A598E6
:103220008EB1877C8EB980910201809302013EB1FC
:10323000CE018827987F892F9927AC014C7055279C
:10324000440F551F440F551F432B4EB934B3AC01E7
:1032500040715527440F551F432B44BB3EB1AC0171
:10326000407255275595479555954795432B4EB92F
:1032700030910201807C992713E0959587951A95E6
:10328000E1F7832B809302018998899A809102014A
:10329000877880930201A5988EB1877C8EB9809142
:1032A0000201809302013EB1C07ED77003E0D69543
:1032B000C7950A95E1F7CE018C709927880F991F61
:1032C000880F991F832B8EB934B3CE018071992753
:1032D000880F991F832B84BB3EB1CE018072992742
:1032E0009595879595958795832B8EB98091020149
:1032F000C07CDD2773E0D595C7957A95E1F7C82B9B
:10330000C09302018998899A8091020187788093FD
:103310000201A5988EB1877C8EB9809102018093BD
:1033200002019EB1822F8C70880F880F892B8EB975
:1033300094B3822F8071880F892B84BB3EB1922F6A
:103340009072892F90E09595879595958795832B19
:103350008EB980910201207C269526952695282BF2
:10336000209302018998899A8B9A0CC0BE01F701BB
:1033700082A593A5DF91CF911F910F91FF90EF90C0
:103380000C94650BDF91CF911F910F91FF90EF90FF
:1033900008950895EF92FF920F931F93DC01ED9132
:1033A000FC91048CF58DE02D19951F910F91FF90E4
:1033B000EF9008950F931F93DC01ED91FC91028C27
:1033C000F38DE02D19951F910F9108950F931F9381
:1033D000DC01ED91FC91008CF18DE02D19951F9190
:1033E0000F910895DC01ED91FC910480F581E02DB1
:1033F00019942F923F924F925F926F927F928F9289
:103400009F92AF92BF92CF92DF92EF92FF920F9373
:103410001F93CF93DF9300D000D0CDB7DEB72C0140
:103420007E836D836A015901C801FC82EB824801E9
:10343000841A950A97FE03C09194819491083501EE
:103440002D813E81621A730A77FE03C071946194E4
:103450007108681479045CF43A2D2B2D5C01832FDC
:10346000922F3D812E81DE82CD82C32ED22EAD8160
:10347000BE81AA16BB065CF43C2D2D2D6C01832F5A
:10348000922F3D812E81BE82AD82A32EB22E850168
:103490002D813E81021B130B1C012C183D0837FEA9
:1034A00003C0319421943108780117FF03C03FEF26
:1034B000E31AF30AF594E794C816D9062CF08FEFB7
:1034C0009FEF9A83898304C0A1E0B0E0BA83A98307
:1034D0002D813E81A216B30624F1D201ED91FC911B
:1034E0000084F185E02D2B813C816814790424F45B
:1034F0004D815E81B60103C0A6016D817E81C2014E
:103500001995E218F308F7FE06C029813A81C20E28
:10351000D31EE00EF11E8D819E8101969E838D83C8
:10352000D7CF26960FB6F894DEBF0FBECDBFDF9182
:10353000CF911F910F91FF90EF90DF90CF90BF90B0
:10354000AF909F908F907F906F905F904F903F9043
:103550002F9008950F931F93CF93DF93FC01A685BF
:10356000B7858D01005C1F4FE80188819981019624
:103570008F739927AD014E5B5F4FEA012881398136
:1035800028173907D1F3E80128813981A20FB31F29
:103590006C93A685B785A05CBF4F11969C938E93C4
:1035A000A689B7892C9181E090E0078C02C0880F32
:1035B000991F0A94E2F7822B8C9381E081A30488FF
:1035C000F589E02D80818064808381E090E0DF9147
:1035D000CF911F910F910895FC0181A1882329F0BB
:1035E000A489B5898C9186FFFBCF11A20895FC01B7
:1035F000A485B585FD01E05CFF4F208131813296C5
:10360000808191812817390779F080819181A80FF5
:10361000B91F8C91208131812F5F3F4F2F7333274A
:103620003183208390E008958FEF9FEF0895DC01B0
:103630001C96ED91FC911D97DF01A05CBF4F2D9171
:103640003C91119712968D919C91119728173907EB
:1036500039F08D919C91E80FF91F808190E00895D9
:103660008FEF9FEF0895FC0124853585F901E05C1B
:10367000FF4F80819181329620813181821B930B93
:103680008F7399270895FB01E05CFF4F2081318102
:10369000DB01AE5BBF4F4D915C912F5F3F4F2F73AE
:1036A00033274217530741F040815181DB01A40FBA
:1036B000B51F8C93318320830895CF92DF92EF92D0
:1036C000FF920F931F93CF93DF936C01EB017B016C
:1036D000E40EF51E00E010E0CE15DF0561F0699103
:1036E000D601ED91FC910190F081E02DC601199574
:1036F000080F191FF1CFC801DF91CF911F910F91D2
:10370000FF90EF90DF90CF9008953FB7F8948091AD
:10371000150690911606A0911706B091180626B5C9
:10372000A89B05C02F3F19F00196A11DB11D3FBFF9
:10373000BA2FA92F982F8827820F911DA11DB11D87
:10374000BC01CD0142E0660F771F881F991F4A9583
:10375000D1F708951F920F920FB60F9211240BB656
:103760000F922F933F938F939F93EF93FF9320910B
:10377000D6023091D7028091D8029091D9022817B1
:10378000390731F4809131018F7D8093310114C06C
:10379000E091D802F091D902EA56FD4F2081809144
:1037A000D8029091D90201968F7399279093D902EC
:1037B0008093D80220933601FF91EF919F918F91D2
:1037C0003F912F910F900BBE0F900FBE0F901F9047
:1037D00018951F920F920FB60F9211240BB60F92ED
:1037E0002F933F938F939F93EF93FF9320915E03CB
:1037F00030915F038091600390916103281739072E
:1038000031F48091D1008F7D8093D10014C0E0917C
:103810006003F0916103E25EFC4F208180916003C0
:103820009091610301968F73992790936103809320
:1038300060032093D600FF91EF919F918F913F916C
:103840002F910F900BBE0F900FBE0F901F901895E9
:103850001F920F920FB60F9211240BB60F922F9357
:103860003F938F939F93EF93FF932091E6033091C3
:10387000E7038091E8039091E9032817390731F4B1
:103880008091C9008F7D8093C90014C0E091E80346
:10389000F091E903EA55FC4F20818091E803909173
:1038A000E90301968F7399279093E9038093E803C6
:1038B0002093CE00FF91EF919F918F913F912F9197
:1038C0000F900BBE0F900FBE0F901F9018951F9278
:1038D0000F920FB60F9211240BB60F922F933F93B6
:1038E0008F939F93EF93FF9320916E0430916F0419
:1038F00080917004909171042817390731F48091F8
:10390000C1008F7D8093C10014C0E0917004F091DC
:103910007104E25DFB4F20818091700490917104ED
:1039200001968F739927909371048093700420936C
:10393000C600FF91EF919F918F913F912F910F9032
:103940000BBE0F900FBE0F901F9018951F920F92F5
:103950000FB60F9211240BB60F922F933F934F93F4
:103960005F936F937F938F939F93AF93BF93EF93E7
:10397000FF938091300182FD07C0809136016AED8E
:1039800072E00E94431B02C080913601FF91EF91CB
:10399000BF91AF919F918F917F916F915F914F9167
:1039A0003F912F910F900BBE0F900FBE0F901F9065
:1039B00018951F920F920FB60F9211240BB60F920B
:1039C0002F933F934F935F936F937F938F939F9327
:1039D000AF93BF93EF93FF938091D00082FD07C018
:1039E0008091D60062E673E00E94431B02C0809182
:1039F000D600FF91EF91BF91AF919F918F917F91F1
:103A00006F915F914F913F912F910F900BBE0F904F
:103A10000FBE0F901F9018951F920F920FB60F9226
:103A200011240BB60F922F933F934F935F936F9395
:103A30007F938F939F93AF93BF93EF93FF93809167
:103A4000C80082FD07C08091CE006AEE73E00E943C
:103A5000431B02C08091CE00FF91EF91BF91AF91C7
:103A60009F918F917F916F915F914F913F912F9196
:103A70000F900BBE0F900FBE0F901F9018951F92C6
:103A80000F920FB60F9211240BB60F922F933F9304
:103A90004F935F936F937F938F939F93AF93BF9356
:103AA000EF93FF938091C00082FD07C08091C60014
:103AB00062E774E00E94431B02C08091C600FF9140
:103AC000EF91BF91AF919F918F917F916F915F9196
:103AD0004F913F912F910F900BBE0F900FBE0F9003
:103AE0001F901895DC01ED91FC910190F081E02D83
:103AF00019946115710579F0FB0101900020E9F737
:103B00003197AF01461B570BDC01ED91FC91028010
:103B1000F381E02D199480E090E00895EF92FF92F8
:103B20000F931F93CF93DF938C010E94791D7C012B
:103B30006DE0C8010E94721DEC016AE0C8010E949C
:103B4000721DCE0DDF1D8C0F9D1FDF91CF911F9138
:103B50000F91FF90EF9008950F931F93CF93DF93F2
:103B60008C01EB01FC0180819181009799F04281E9
:103B700053812C813D814217530750F06881798130
:103B80000E94642E8C819D81F8019583848313C0EB
:103B90000E94ED2C88819981F801918380838A812C
:103BA0009B81938382838C819D81958384831982F9
:103BB00018821B821A821D821C82DF91CF911F9175
:103BC0000F910895EF92FF920F931F93CF93DF937E
:103BD000EC017B018A0188819981009729F02A8173
:103BE0003B8124173507F8F4B8016F5F7F4F0E94BF
:103BF000762D009759F0998388831B830A832C8143
:103C00003D81232B81F4FC0110820DC088819981B4
:103C1000009711F00E94ED2C198218821D821C82DF
:103C20001B821A8207C01D830C83B701888199818A
:103C30000E94642ECE01DF91CF911F910F91FF90D2
:103C4000EF900895FC01808191810C94ED2CFC0192
:103C500011821082138212821582148216826115DB
:103C6000710551F0FB0101900020E9F73197AF0198
:103C7000461B570B0C94E21D0895CF93DF9390E001
:103C8000FC01EE50F34F2491FC01EE5AF24F849167
:103C9000882361F190E0880F991FFC01E856F24FEC
:103CA000C591D491FC01E85CF24FA591B4916111EA
:103CB00009C09FB7F8948881209582238883EC916E
:103CC0002E230BC0623061F49FB7F8948881322FA5
:103CD000309583238883EC912E2B2C939FBF06C0B5
:103CE0008FB7F894E8812E2B28838FBFDF91CF9177
:103CF0000895CF92DF92EF92FF92CF93DF936B0103
:103D00007C010E94851BEB01C114D104E104F10484
:103D100079F00E94851B6C1B7D0B683E7340A0F3FD
:103D200081E0C81AD108E108F108C851DC4FECCF96
:103D3000DF91CF91FF90EF90DF90CF9008951F9289
:103D40000F920FB60F9211242F933F938F939F934F
:103D5000AF93BF9380918E0290918F02A0919002B9
:103D6000B09191023091140623E0230F2D3720F4F7
:103D70000196A11DB11D05C026E8230F0296A11DC5
:103D8000B11D2093140680938E0290938F02A0930E
:103D90009002B09391028091150690911606A09121
:103DA0001706B09118060196A11DB11D8093150646
:103DB00090931606A0931706B0931806BF91AF9183
:103DC0009F918F913F912F910F900FBE0F901F9059
:103DD0001895CF93DF93CDB7DEB765970FB6F894FC
:103DE000DEBF0FBECDBF789484B5826084BD84B53C
:103DF000816084BD85B5826085BD85B5816085BDE6
:103E000080916E00816080936E001092810080919D
:103E10008100826080938100809181008160809325
:103E20008100809180008160809380008091B1004A
:103E300084608093B1008091B00081608093B00075
:103E400080919100826080939100809191008160C7
:103E50008093910080919000816080939000809188
:103E6000A10082608093A1008091A1008160809375
:103E7000A1008091A00081608093A0008091210129
:103E800082608093210180912101816080932101D2
:103E90008091200181608093200180917A0084606C
:103EA00080937A0080917A00826080937A0080917A
:103EB0007A00816080937A0080917A008068809394
:103EC0007A001092C100E091CA04F091CB0481E025
:103ED00090E09C010090D60402C0220F331F0A9488
:103EE000E2F72083E091C604F091C7041082E091CC
:103EF000C804F091C9042FEC20831092D704E091FC
:103F0000CC04F091CD0440819C010090D20402C009
:103F1000220F331F0A94E2F7242B2083E091CC0474
:103F2000F091CD0440819C010090D30402C0220F87
:103F3000331F0A94E2F7242B2083E091CC04F09104
:103F4000CD0440819C010090D40402C0220F331F95
:103F50000A94E2F7242B2083E091CC04F091CD0465
:103F600020810090D50402C0880F991F0A94E2F7BF
:103F700080958223808386EB94E00E94EC1A60E0B7
:103F800080E090E00E946710883024E5920709F4F1
:103F9000D6C0803264E5960709F4D4C089389948C0
:103FA00009F4D3C060E087E690E00E946710873490
:103FB000974409F4CDC081EA90E00E94A8116130D5
:103FC000F1E67F0709F4C7C06F3F7F4F19F406E29F
:103FD00015E1F5C08FEB90E00E947611673583E81C
:103FE000780709F4BBC0613894E9790709F4B9C0CE
:103FF0006131E5E17E0709F4B7C06032F5E17F0782
:1040000009F4B5C0663225E1720709F3613885E12C
:10401000780709F4AFC06115744109F4AEC084EDAE
:1040200090E00E94A8116031734509F4A9C087EDA2
:1040300090E00E94A8116133704809F4A4C08FEE8B
:1040400090E00E9476116732734909F49FC08EEFA9
:1040500090E00E94A811BB27A92F982F872F8335A6
:10406000904209F496C084E090E00E94A8119B0160
:10407000811124C0211570E8370701F580910602EF
:1040800090910702A091080289839A83AB83AE01C5
:104090004F5F5F4F63E089EB90E00E940E0A60E0A3
:1040A00080ED90E00E946710893929F08039C9F4C9
:1040B00000E910E984C009E910E081C0263285E1F9
:1040C000380709F484CF203F99E8390709F464C020
:1040D0002235E5E83E0709F462C021313C4A09F483
:1040E00061C083ED90E00E94A811BB27A92F982FF3
:1040F000872F8336914909F458C083ED90E00E94E0
:10410000A811CB013DE6370F323008F451C07839A1
:1041100009F44EC0773709F44BC0763109F448C032
:10412000633D710509F446C0833D934D09F445C0D4
:1041300060E080E090E00E9467108C0140C008E0E1
:1041400014E53DC000E214E53AC009E812E137C0C9
:1041500007E413E834C003E619E131C007E513E8CA
:104160002EC001E814E92BC001E115E128C000E2EE
:1041700015E125C001E815E122C004E118E61FC0E1
:1041800000E113E51CC001E310E819C007E213E9E0
:1041900016C003E510E213C005E317E710C009E8F5
:1041A00017E70DC001E11CEA0AC003E611E907C0E8
:1041B0008B0105C003ED10E002C003ED13ED0E947A
:1041C0003810109293051092920510939705009362
:1041D0009605073573E8170709F499C108F0A5C0DB
:1041E000033590E2190709F4F3C108F047C0013123
:1041F000F5E11F0709F42CC1B0F40939110509F4E0
:104200009EC138F40130110509F04DC280E091E102
:10421000B0C1043561E0160709F40FC1053015413E
:1042200009F4A5C140C2063285E1180709F428C186
:1042300080F40032154109F036C283E194E0909396
:1042400095058093940566E0E62EF12C0DE013E0D1
:1042500030C20138F5E11F0709F4CFC10230164121
:1042600009F021C283E094E0909395058093940532
:10427000B6E0EB2EF12C06E612E01BC2043168E634
:10428000160709F421C108F5003183E5180709F480
:1042900003C178F40533154409F005C280E090E1CC
:1042A00090939505809394056CE970E08AEB96E015
:1042B000E4C10830F4E51F0709F459C10930184674
:1042C00009F0F1C182E091E162C1033967E71607A5
:1042D00009F4D6C1A8F4033887E7180709F40CC11C
:1042E0000938174709F0DFC183E194E09093950501
:1042F0008093940521E4E22EF12C0BEB12E0D9C15E
:104300000639E7E71E0709F493C10133104809F0A5
:10431000CAC183E194E1909395058093940592E15D
:10432000E92EF12C09EA12E0C4C1083323E912078F
:1043300009F454C170F5073273E9170709F430C165
:10434000B8F4023093E9190709F445C138F400398B
:10435000104909F0A8C183E194E1DBC0003223E9F0
:10436000120709F404C10532134909F40BC19BC1BA
:10437000093273E9170709F434C108F403C10133A2
:1043800093E9190709F401C10533134909F4FDC084
:104390008AC10938F4E91F07C8F5073824E912076C
:1043A00008F049C1013864E9160709F429C190F4FD
:1043B000005413490230110508F075C183E194E0FF
:1043C0009093950580939405F5E6EF2EF12C0EEF72
:1043D00011E06FC10638144909F065C183E094E02B
:1043E000909395058093940580EE91E090937F05DE
:1043F00080937E0580E491E090937D0580937C0519
:104400007BE3E72EF12C0EE711E053C1053095EB6D
:10441000190709F428C138F401311C4A09F043C1D5
:1044200083E194E1E0C0093025EB120709F428C1CB
:104430000530154C09F417C136C182E090E1909324
:104440009505809394056CE970E086E597E015C1C9
:1044500083E090E0909395058093940580EE91E041
:1044600090937F0580937E0580E491E090937D0595
:1044700080937C0573E0E72EF12C03E113E019C172
:1044800083E194E090939505809394055CE0E52E9C
:10449000F12C01E013E00DC183E19EE090939505BE
:1044A0008093940580EE91E090937F0580937E0544
:1044B00080E491E090937D0580937C0542E0E42EBA
:1044C000F12C0FEF12E0F5C083E094E09093950596
:1044D0008093940580EE91E090937F0580937E0514
:1044E00080E491E090937D0580937C0533E0E32E9A
:1044F000F12C0CEF12E0DDC082E091E19093950584
:104500008093940560E970E08AE296E0B6C083E0AB
:1045100094E1909395058093940580EE91E09093BB
:104520007F0580937E0580E491E090937D058093E4
:104530007C0582E0E82EF12C07EA12E0BAC083E1A4
:1045400094E1909395058093940580EE91E090938B
:104550007F0580937E0580E491E090937D058093B4
:104560007C050DE1E02EF12C0AE812E0A2C084E007
:1045700090E1909395058093940568ED70E082E555
:1045800095E07BC080E091E102C080E090E19093F3
:104590009505809394056CEC70E086E894E06DC01E
:1045A00083E094E0909395058093940580E991E0F1
:1045B00090937F0580937E0580EF90E090937D053A
:1045C00080937C051EE1E12EF12C0CE612E071C017
:1045D00087E194E108C083E094E005C083E194E0C2
:1045E00002C083E096E19093950580939405A3E043
:1045F000EA2EF12C03E612E05CC083E194E002C0F5
:1046000087E094E0909395058093940580EE91E087
:1046100090937F0580937E0580E491E090937D05E3
:1046200080937C05E5E4EE2EF12C09EB11E041C00E
:1046300083E094E002C083E194E090939505809339
:10464000940580EE91E090937F0580937E0580E451
:1046500091E090937D0580937C056BE2E62EF12C32
:1046600003E511E026C088E090E1909395058093E2
:10467000940560EB70E086ED93E00E94A91417C0EA
:1046800080E090E1909395058093940560EC70E054
:1046900086E193E00E94A91480E991E090937F0560
:1046A00080937E0504C010927D0510927C0500E089
:1046B00010E020919505822F82958F7090E0817097
:1046C000992790939905809398050115110581F01C
:1046D00069E070E08AE491E00E94CD14B701C8015E
:1046E0000E94CD1466E070E084E491E00E94CD1455
:1046F00060E088E795E00E94580C60E088E795E06C
:104700000E948D0F80919605909197058838944965
:1047100009F064C21092130620EE3FEF40E050E033
:1047200060E070E088E795E00E944F18E090A205F5
:10473000F090A30580918D02811107C080919405AE
:1047400080FF03C05EE2E52EF12C809196059091EA
:1047500097058230964119F44EE2E42EF12C00E0E8
:1047600010E020E030E040E050E060E070E088E7FA
:1047700095E00E94F9158091940580FD10C060E0DD
:1047800070E080919E0590919F050E94650B60E00E
:1047900070E08091A0059091A1050E94650B8B9817
:1047A0008A9880910201877880930201A5988EB142
:1047B000877C8EB9409102018F2D99279C0123702F
:1047C000332755E0220F331F5A95E1F7242B20930E
:1047D00002014EB19C012C703327220F331F220F90
:1047E000331F242B2EB944B39C0120713327220F91
:1047F000331F242B24BB4EB19C01207233273595E7
:10480000279535952795242B2EB920910201807C80
:104810009927F3E095958795FA95E1F7822B809398
:1048200002018998899A8091020187788093020118
:10483000A5988EB1877C8EB920910201C701837043
:104840009927A5E0880F991FAA95E1F7822B8093FD
:1048500002012EB1C7018C709927880F991F880F0C
:10486000991F822B8EB924B3C70180719927880FB5
:10487000991F822B84BB2EB1C70180729927959511
:10488000879595958795822B8EB920910201C70156
:10489000807C992733E0959587953A95E1F7822BAF
:1048A000809302018998899A8A9A80910101877878
:1048B000809301019D988DB1877C8DB940919405BD
:1048C00050919505809196059091970546FD1EC0E3
:1048D000889A889888988898209100012CB122B3F2
:1048E0002CB120910001889A40FD10C08938F2E176
:1048F0009F0761F0889A889888988898209100018D
:104900002CB122B32CB120910001889A81319541BC
:1049100061F4889A889888988898809100018CB171
:1049200082B38CB180910001889AFA01E470FF276C
:10493000889A88988898889844FF8CC06091000174
:104940008CB192B37CB1309100016076262F229514
:1049500026952770807386958695682F622B9072B6
:10496000892F90E095958795862B672F6870660F45
:10497000660F862B632F687198E0699FB001112440
:10498000682B889A889A88988898889880910001DE
:104990002CB192B37CB1A09100018076382F329572
:1049A00036953770207326952695822F832B90722B
:1049B000292F30E035952795282B872F8870880F71
:1049C000880F282B8A2F887178E0879F7001112427
:1049D000822F8E29889A889A8898889888987091CA
:1049E0000001ACB132B32CB1909100017076B72FB9
:1049F000B295B695B770A073A695A6957A2F7B2B26
:104A00003072A32FB0E0B595A795A72B2870220F81
:104A1000220FA22B987178E0979F900111242A2BE6
:104A2000889A8C7FEF2B59F0287F98E0899F70013E
:104A30001124F22A669566956695E62A7CC0687F01
:104A4000E8E08E9F70011124F62A2695269526957A
:104A5000E22A71C0D09000018CB192B3BCB1A09198
:104A60000001889A889A88988898889830910001DF
:104A70002CB102B36CB1C09000013076E32EF12C62
:104A800015E0F594E7941A95E1F7207330E0359539
:104A9000279535952795E22AF32A007210E015959F
:104AA0000795E02AF12A687070E0660F771F660F9D
:104AB000771F9701262B372B6C2D687178E0679F45
:104AC00070011124E22AF32A889A2D2D2076322FA4
:104AD000329536953770807386958695282F232BCF
:104AE0009072892F90E095958795822BB870BB0FB7
:104AF000BB0F8B2B2A2F287198E0299F900111243E
:104B0000822BF82A43FF03C0FE24EF24FE24EF2B60
:104B100091F09701207E3770C701892F99278695DC
:104B200086958695822B932BFE2CEE24FF0CFF0C92
:104B3000FF0CE82AF92A80911306882399F097013F
:104B4000207CC7018827947065E0969587956A95C3
:104B5000E1F7EFE3EE22FF24F694E794E82AF92A3E
:104B6000E22AF32A889A8B9A8091010188678093C0
:104B700001019D9A8DB188638DB940FD14C00091EB
:104B80008205109183050150110920918005309113
:104B900081052150310940E050E060E070E088E795
:104BA00095E00E94F915FFE1EF16FFEFFF06B1F463
:104BB00086E08983AE014F5F5F4F61E08AE390E05A
:104BC0000E940E0A80919405909195058F7E909396
:104BD00095058093940581E08093130661E088E752
:104BE00095E00E94580C82E080938C0560E070E0B4
:104BF00088E795E00E940E0781E492E00E942B076F
:104C000088E190E090939302809392022091940225
:104C10003091950230938505209384059093870504
:104C200080938605CC24CA9453E0D52E86EB94E07D
:104C30000E94EC1A8FE592E00E942B0710929502D9
:104C40001092940288E190E09093930280939202F4
:104C500010928505109284059093870580938605B0
:104C600084E080938C058FEF9FEF90938B0580936A
:104C70008A05909389058093880500E010E066E638
:104C800072E0CE010F960E94271ECE010F960E9461
:104C90008415982E882309F479C08B899C89892BE7
:104CA00021F0EF85F889309721F410928C02ECE81E
:104CB000F2E080818E34E1F4BE01615F7F4FCE016E
:104CC00001960E94191589819A81009719F00E9416
:104CD000B32B03C060E070E0CB018B0167E672E0AC
:104CE00086EB94E00E948E1DCE0101960E94221E4A
:104CF00048EDE42E44E0F42EA12CB12C0A151B053E
:104D00000CF444C066E672E0CE0108960E94271EAD
:104D1000CE0108960E948415882339F18C859D85E3
:104D2000892B21F0E885F985309721F410928C02C7
:104D3000ECE8F2E080818634F1F4BE01685F7F4FD9
:104D4000CE0101960E941915BE016F5F7F4FC7010A
:104D50000E94AC1DCE0101960E94221E69E672E0FF
:104D600086EB94E00E948E1D06C0CE0108960E943C
:104D7000221E912C0BC0CE0108960E94221E2FEFFE
:104D8000A21AB20A67E0E60EF11CB8CFCE010F9668
:104D90000E94221E992009F472CF38EDA32E34E030
:104DA000B32E612C712C061517056CF1E12CF12C3A
:104DB000F50184819581E816F906A8F4E816F9064C
:104DC00048F480819181009729F0FC01EE0DFF1DD0
:104DD000608101C060E088E795E00E943809FFEF3C
:104DE000EF1AFF0AE5CF809192029091930280968C
:104DF00090939302809392022FEF621A720A67E0F7
:104E0000A60EB11CD0CF8091920290919302809710
:104E10009093930280939202209194023091950294
:104E200030938505209384059093870580938605AC
:104E30006BE672E088E795E00E94791D809192020E
:104E4000909193028096909393028093920260E0F7
:104E5000809166050E943D1E60E0809167050E947A
:104E60003D1E61E0809169050E943D1E61E08091D8
:104E700068050E943D1E90917405E0916C05F091CB
:104E80006D058081892B808380917505E091700587
:104E9000F0917105908180958923808380916605CA
:104EA0000E948A147C01809166050E948A149701F1
:104EB000281B390B2C5F3F4F2930310538F48E0DFC
:104EC0009F1D959587959924939401C0912C760107
:104ED000E81AF90A60E0809169050E943D1E60E0D1
:104EE000809168050E943D1E61E0809166050E94E8
:104EF0003D1E61E0809167050E943D1E809177050F
:104F0000E0917205F09173059081809589238083EB
:104F100090917605E0916E05F0916F058081892B67
:104F20008083809168050E948A145C0180916805E5
:104F30000E948A14A81AB90A74E0A70EB11C89E06D
:104F4000A816B10408F0912C61E0809169050E94D7
:104F50003D1E60E0809166050E943D1E80917405B3
:104F6000E0916C05F0916D05908180958923808397
:104F700090917705E0917205F09173058081892BFE
:104F80008083809168050E948A145C018091660587
:104F90000E948A1460906A0570906B056114710418
:104FA000E1F1BC01990F880B990B0E94822F1B0124
:104FB0002C01B501BB0C880B990B0E94822F9B0121
:104FC000AC01C201B1010E94D82E20E030E040E8DF
:104FD0005FE30E946B2E1B012C01B7010F2C000C0C
:104FE000880B990B0E94822FA20191010E940E3022
:104FF0001B012C01B30180E090E00E94802FA201F0
:1050000091010E940E3020E030E040E85AE30E9417
:105010000E300E944A2F5B0106C0BC016A197B0951
:105020005601A61AB70A911002C0A12CB12C61E05A
:1050300089E30E943D1E61E088E30E943D1EB501A8
:105040006B5071096D3D734008F001CFA09182054E
:10505000B0918305A701FF0C660B770B9A01AB019A
:1050600028593340410951090E941C2C20EE3CEF85
:105070004FEF5FEF0E94F22B7901E8E1EE1AF108A1
:10508000F7FE04C07901F7E0EF0EF11C95E0F5940E
:10509000E7949A95E1F7B70188E795E00E94CB1174
:1050A000B80188E795E00E94CB1164E772E086EBD7
:1050B00094E00E94791DB70186EB94E00E94CB1129
:1050C00066E672E0CE0101960E94271ECE0101968F
:1050D0000E948415882389F08D819E81892B21F07F
:1050E000E981FA81309721F410928C02ECE8F2E029
:1050F000BB24B3948081813409F0B12CCE01019698
:105100000E94221EBB2089F2E016F10609F4C6C0F7
:10511000B70188E795E00E94CB11B80188E795E0D8
:105120000E94CB111A8219821C821B821E821D8250
:105130001F8287E08E9DF0018F9DF00D1124E852B3
:10514000FB4F608171816115710531F0448155819A
:10515000CE0101960E94E21D89819A810E942B074F
:10516000109295021092940288E190E0909393023D
:105170008093920210928505109284059093870582
:1051800080938605CE0101960E94221E8FEF9FEF2D
:1051900090938B0580938A05909389058093880569
:1051A00082E080938C0586EB94E00E94331B892B70
:1051B00009F45AC086EB94E00E94F71A5C01803330
:1051C000910574F58032910559F1819709F442C037
:1051D00088E0A816B10409F03FC0409192025091B6
:1051E00093026091940270919502E12CF12C00E100
:1051F00010E02CE030E088E795E00E94C8160E949D
:10520000FF0F40919202509193026091940270912D
:1052100095022CE030E088E795E00E94C8161CC09B
:105220004091920250919302609194027091950284
:10523000E12CF12C00E110E02CE030E088E795E073
:105240000E94C8166A2D88E795E00E94721D0E9490
:10525000D30F02C011E001C010E067E772E086EBF7
:1052600094E00E948E1D01C010E069E772E088E7BB
:1052700095E00E94791D8091920290919302209175
:105280009402309195023093850520938405909384
:105290008705809386051111C9CC85CF60E070E049
:1052A00088E795E00E940E078BE792E00E942B07AB
:1052B00082E080938C0510928905109288058FEF0B
:1052C0009FEF90938B0580938A0524EB30E0309319
:1052D00095022093940284E090E09093930280934F
:1052E00092023093850520938405909387058093DF
:1052F000860586EB94E00E94331B892BD1F386EB65
:1053000094E00E94F71A8830910521F540919202AD
:10531000509193026091940270919502EE24EA9468
:10532000FE2C00E110E02CE030E088E795E00E94E0
:10533000C8160E94FF0F4091920250919302609113
:105340009402709195022CE030E088E795E00E948D
:10535000C816CFCF8132910509F418CF682F88E79E
:1053600095E00E94721D0E94D30FC3CFCF92DF92AF
:10537000EF92FF92CF93DF931092B9041092B8048A
:1053800088EEC82E83E0D82EE12CF12CC092BA040E
:10539000D092BB04E092BC04F092BD046DE072E0D8
:1053A0007093B7046093B60482E794E09093C304CB
:1053B0008093C2048EE294E09093C5048093C40469
:1053C00085EC90E09093C7048093C60484EC90E051
:1053D0009093C9048093C80480EC90E09093CB0430
:1053E0008093CA0481EC90E09093CD048093CC0428
:1053F00082EC90E09093CF048093CE0486EC90E012
:105400009093D1048093D00444E04093D20433E0DD
:105410003093D30427E02093D40495E09093D504EF
:1054200081E08093D6041092F4051092F305C092A7
:10543000F505D092F605E092F705F092F805709325
:10544000F2056093F105EAEEF3E0F093FE05E093D8
:10545000FD05E6EAF3E0F0930006E093FF05EDECCE
:10546000F0E0F0930206E0930106ECECF0E0F0933C
:105470000406E0930306E8ECF0E0F0930606E09300
:105480000506E9ECF0E0F0930806E0930706EAEC85
:10549000F0E0F0930A06E0930906EEECF0E0F093FA
:1054A0000C06E0930B0640930D0630930E062093F6
:1054B0000F0690931006809311061092D205109259
:1054C000D105C092D305D092D405E092D505F092D3
:1054D000D6057093D0056093CF05E2E6F3E0F09334
:1054E000DC05E093DB05EEE1F3E0F093DE05E0930D
:1054F000DD05E5EDF0E0F093E005E093DF05E4ED98
:10550000F0E0F093E205E093E105E0EDF0E0F093E8
:10551000E405E093E305E1EDF0E0F093E605E093C8
:10552000E505E2EDF0E0F093E805E093E705E6ED50
:10553000F0E0F093EA05E093E9054093EB05309342
:10554000EC052093ED059093EE058093EF05109206
:10555000B0051092AF05C092B105D092B205E092AD
:10556000B305F092B4057093AE056093AD056AED96
:1055700072E07093BA056093B90566E972E07093C2
:10558000BC056093BB0565E371E07093BE05609355
:10559000BD0564E371E07093C0056093BF0560E3EF
:1055A00071E07093C2056093C10561E371E070938F
:1055B000C4056093C30562E371E07093C605609310
:1055C000C50566E371E07093C8056093C705409315
:1055D000C9053093CA052093CB059093CC058093E1
:1055E000CD0510927B0510927A0540EF50E0509364
:1055F0007D0540937C0520E431E030937F052093C6
:105600007E05509381054093800530938305209358
:10561000820510928D0510928505109284051092D6
:1056200087051092860580938C052FEF3FEF30930E
:105630008B0520938A0530938905209388058093F4
:105640008E0510928F0510929105109290058DE1B4
:1056500092E0909379058093780589E380936605BD
:1056600088E38093680589E08093670588E08093EC
:1056700069058CE291E090936B0580936A05EAE5F9
:10568000FDE0E491F0E0EE0FFF1FE85CF24F859142
:10569000949190936D0580936C05EBE8FDE0E491A7
:1056A000F0E0EE0FFF1FE85CF24F8591949190932C
:1056B0006F0580936E05EAE8FDE0E491F0E0EE0FFF
:1056C000FF1FE85CF24F8591949190937105809350
:1056D0007005EBE5FDE0E491F0E0EE0FFF1FE85C04
:1056E000F24F859194919093730580937205EAEF40
:1056F000FCE0E491E0937405EBE2FDE0E491E093DB
:105700007605EAE2FDE0E491E0937505EBEFFCE05D
:10571000E491E09377058AE090E0909365058093AB
:105720006405C8EDD4E066E672E0CE010E94271E53
:10573000279685E0C436D807B1F7DF91CF91FF9067
:10574000EF90DF90CF900895CF93DF93C4E6D5E03C
:105750002797CE010E94221E84E0C83DD807C1F7DA
:10576000DF91CF9108951F93FC0199278827BC01F1
:10577000E89411911032E9F3193010F01E30C8F39B
:105780001B3251F01D3249F4689406C00E94DD2B93
:10579000610F711D811D911D119110531A30B0F3CD
:1057A0003EF490958095709561957F4F8F4F9F4FF8
:1057B0001F910895F8940C94AB30592F482F372F30
:1057C000262F660F771F881F991F660F771F881F68
:1057D000991F620F731F841F951F660F771F881F05
:1057E000991F0895052E97FB1EF400940E94092C22
:1057F00057FD07D00E94242C07FC03D04EF40C94D4
:10580000092C50954095309521953F4F4F4F5F4F54
:10581000089590958095709561957F4F8F4F9F4F1C
:1058200008950E94462CA59F900DB49F900DA49FB3
:10583000800D911D11240895B7FF0C94112C0E9426
:10584000112C821B930B0895A1E21A2EAA1BBB1BDD
:10585000FD010DC0AA1FBB1FEE1FFF1FA217B3073C
:10586000E407F50720F0A21BB30BE40BF50B661F52
:10587000771F881F991F1A9469F760957095809516
:1058800090959B01AC01BD01CF010895A29FB0018D
:10589000B39FC001A39F700D811D1124911DB29F64
:1058A000700D811D1124911D08950F931F93CF93A7
:1058B000DF938230910510F482E090E0E0911B06C6
:1058C000F0911C0620E030E0A0E0B0E0309719F144
:1058D000408151810281138148175907C8F084170C
:1058E000950769F4109731F012960C93129713965E
:1058F0001C9327C000931B0610931C0622C0211581
:10590000310519F04217530718F49A01BD01EF0150
:10591000DF01F801DBCF21153105F9F0281B390B28
:105920002430310580F48A819B816115710521F055
:10593000FB019383828304C090931C0680931B0613
:10594000FE01329644C0FE01E20FF31F8193919352
:1059500022503109398328833AC0209119063091A9
:105960001A06232B41F42091020230910302309356
:105970001A06209319062091000230910102211588
:10598000310541F42DB73EB7409104025091050214
:10599000241B350BE0911906F0911A06E217F30764
:1059A000A0F42E1B3F0B2817390778F0AC014E5F8F
:1059B0005F4F2417350748F04E0F5F1F50931A06AC
:1059C000409319068193919302C0E0E0F0E0CF018B
:1059D000DF91CF911F910F910895CF93DF9300979F
:1059E00009F481C0FC01329713821282A0911B0638
:1059F000B0911C06109781F420813181820F931F92
:105A00002091190630911A062817390751F5F0939D
:105A10001A06E093190667C0ED0120E030E0CE17CA
:105A2000DF0740F44A815B819E0141155105F1F089
:105A3000EA01F5CFD383C28340815181840F951F42
:105A4000C817D90759F488819981840F951F029648
:105A5000918380838A819B81938382832115310581
:105A600029F4F0931C06E0931B063DC0E901FB837B
:105A7000EA8349915991C40FD51FEC17FD0761F4D2
:105A800080819181840F951F0296E9019983888313
:105A9000828193819B838A83E0E0F0E012968D916E
:105AA0009C911397009719F0FD01DC01F7CF8D91C0
:105AB0009C9111979D012E5F3F4F820F931F209164
:105AC000190630911A062817390769F4309729F416
:105AD00010921C0610921B0602C013821282B09311
